:020000041000EA
:10000000002008205D0100101B0100101D010010E0
:100010001101001011010010110100101101001058
:100020001901001019010010190100101F01001022
:10003000110100101901001021010010230100100E
:100040001101001011010010110100101101001028
:100050001101001011010010110100101101001018
:100060001101001011010010110100101101001008
:1000700011010010110100101101001011010010F8
:1000800011010010110100101101001011010010E8
:1000900011010010110100101101001011010010D8
:1000A00011010010110100101101001011010010C8
:1000B00011010010110100101101001011010010B8
:1000C00011010010110100101101001011010010A8
:1000D0001101001011010010110100101101001098
:1000E0001101001011010010110100101101001088
:1000F0001101001011010010110100101101001078
:100100001101001011010010110100101101001067
:10011000EFF30580103800BE00BE00BE00BE00BE7A
:1001200000BE00BEF2EB8871748200109482001051
:10013000A001001090A31AE7D3DEFFFF42012110B7
:10014000FF0100001C980000793512AB4FF0000051
:100150001E49086006C881F3088810474FF05040D8
:10016000006810B14FF00000F2E70DA40ECC00299A
:1001700002D000F012F8F9E71549164A002000E015
:1001800001C19142FCD11449884714498847144958
:10019000884700BEFDE701C901C29A42FBD3704700
:1001A0009482001010010020D017002054990010F4
:1001B00000000820000008205499001000100820BA
:1001C00000100820000000007047000008ED00E06B
:1001D000D017002030250020914600103502001075
:1001E00089460010F8B500BF064B0749C91A8910A7
:1001F00048BF0131491003D0044B0BB101481847E7
:10020000704700BFD0170020D0170020000000006A
:1002100008B5054B1BB105490548AFF30080BDE8A3
:100220000840FFF7E1BF00BF00000000C02400202D
:1002300040760010F0B591B004F052FB00F0A0F849
:1002400001F04CF844F20820434B444A444901F081
:1002500047F802E0642002F06DF804F013FF002874
:10026000F8D04FF4FA7002F065F800263D4D3E4F8D
:100270003E4804F0F7FB41F2F3103D4B3D4A3E4946
:1002800001F02EF8002404F073FB0A2804F10103A6
:1002900018D00D280CBF012200222A7015D02C285E
:1002A000F1D004F140021F2B6A44ECD8202808BF8B
:1002B0005F2002F8200C1C4604F05AFB0A2804F1C7
:1002C0000103E6D12B78002B3BD16C4401A884F8C4
:1002D000206000F05DFB0028CAD0284804F0C2FB73
:1002E000002404F045FB0A2804F1010318D00D286E
:1002F0000CBF012200222A7014D02C28F1D004F166
:1003000040021F2B6A44ECD8202808BF5F2002F867
:10031000200C1C4604F02CFB0A2804F10103E6D152
:100320002B7883B96C4484F82060BDF82030632BAF
:100330009ED09DF8203043B108A901A800F004FE2A
:10034000CBE72E709FE72E70CBE797E8030008906D
:10035000ADF82410F0E700BF40760010587600108A
:10036000647600102B250020047700106C760010B6
:1003700090760010A8760010C8780010B4760010AF
:1003800008B506F079FF1F211A2001F0E5F80022D8
:100390001A20114601F0FEF800211A2001F00EF992
:1003A000034B044A1B6803F47043136008BD00BF8D
:1003B00000000A4000100A4004210B4B0B4A196050
:1003C0001368DB05FCD55368DFED096A9BB207EEC5
:1003D000903AF8EEE77A9FED077A67EEA67AC7EED5
:1003E000877A17EE900A704700200A4000000A4002
:1003F0003333534000F07F45F0B5002585B08DF8CC
:100400000D102A215BBAADF80E30030A2C468DF888
:100410000C5063F3070560F30F25130A63F31745C8
:1004200062F31F6514278DF80710029544EC4070A5
:10043000112544EC405001220DF107011E4807F040
:10044000D7F84FF0010646EC405046EC407044ECC3
:100450004050042202A9184807F0CAF846EC405060
:100460002B238DF8073044EC407044EC40500122BF
:100470000DF10701104807F0BBF846EC405046EC80
:10048000407044EC4050042203A90B4807F0B0F838
:1004900046EC40502C238DF8073044EC407044EC7F
:1004A000405001220DF10701034807F0A1F846EC86
:1004B000405005B0F0BD00BF0000084070B51E46BA
:1004C000831890B0B3F5A07FBDF850C04BDC144644
:1004D000013A024492B28B19F02B3FDC731E0B449D
:1004E0009BB200254FEA1C2E6EF307055FFA8CFCC9
:1004F0006CF30F256EF317456CF31F65CDE90055BE
:10050000CDE90255CDE90455CDE90655CDE90855AB
:10051000CDE90A55CDE90C55CDE90E55FFF76CFF35
:1005200014234FF0010242EC403011234FF000023F
:1005300042EC403006FB04F4202C254628BF202541
:1005400069460C486A0007F053F8641BF4D1112384
:100550004FF0010242EC403010B070BDC1F1F00626
:10056000EF23B6B2BDE7C0F5A07440F23F12A4B2CB
:10057000B1E700BF000008402DE9F04702274FF027
:100580000109804C96B08049204606F08DFE7F4BD5
:1005900062685F6023687E4E7E4D83F007033A40B9
:1005A00003F0CF03336001216A60122000F0D4FF12
:1005B0000121132000F0D0FF774B02AE0FCB86E86D
:1005C0000F0006AD56F8047B4FF00104384601F0E9
:1005D00005F844EC4470B542F4D1112644EC406077
:1005E0001623002747EC40304FF0150A44EC40A09A
:1005F0000A2001F09FFE47EC40A00A2001F09AFE7D
:1006000044EC40A0782001F095FE8DF818904FF052
:10061000140947EC409047EC4060012229465948B4
:1006200006F0E6FF44EC4060962001F083FE8DF872
:10063000186047EC409047EC406001222946514841
:1006400006F0D6FF44EC4060782001F073FE55239D
:100650008DF8063060238DF807303A238DF8183076
:1006600047EC409047EC406001222946454806F09F
:10067000BFFF44EC406044EC409047EC40600122F6
:100680000DF106013F4806F0B3FF44EC406036230D
:100690008DF8183047EC409047EC40600122294625
:1006A000384806F0A5FF44EC406044EC409047EC2D
:1006B000406001220DF10701324806F099FF44EC39
:1006C000406021238DF8183047EC409047EC4060A3
:1006D000012229462B4806F08BFF44EC406013238F
:1006E0008DF8183047EC409047EC406001222946D5
:1006F000244806F07DFF44EC40600A2001F01AFE19
:10070000EF2340F23F1239463846CDE90677CDE96E
:100710000877CDE90A77CDE90C77CDE90E77CDE9F9
:100720001077CDE91277CDE91477FFF765FE44EC39
:10073000409047EC40604FF416644022294611482F
:1007400006F056FF013CF8D111274FF0010646ECA8
:100750004070292214238DF8182044EC403044ECDA
:10076000407001222946074806F042FF46EC4070DF
:100770000A2001F0DFFD162346EC403016B0BDE83C
:10078000F08700BF00000840005A620200300840B5
:100790000010084000200840EC7F001070B4B0F555
:1007A000A07FBDF80C6007D2EF2905D822B11BB19C
:1007B000039670BCFFF782BE70BC7047844610B5CC
:1007C00000244FEA1C2E21465FFA8CFC20466EF373
:1007D00007046CF30F246EF3174490B06CF31F649E
:1007E000EF2340F23F12CDE90044CDE90244CDE9C8
:1007F0000444CDE90644CDE90844CDE90A44CDE9F5
:100800000C44CDE90E44FFF7F7FD14234FF001022D
:1008100042EC403011234FF0000242EC40304FF4E4
:10082000166440226946064806F0E2FE013CF8D113
:1008300011234FF0010242EC403010B010BD00BF58
:10084000000008402DE9F04F1E46137889B0BDF82E
:1008500048A0BDF84C900391002B00F0828006EB7D
:10086000860505449046ADB2AB4607464D4606EBBD
:10087000460252000792CDF81080203BDAB25E2A81
:1008800088BF9B23384A98BF03EB830313445A1E47
:1008900003F10409CDF814B04B4693460697B7F51B
:1008A000A07F0BF1010B32D28EB39BF800905C4617
:1008B000BB464F4602934FF00009DDF80C8047FA23
:1008C00009F111F0010F0CBFAC46D446B8F1EF0F9F
:1008D00007D83346324641465846CDF800C0FFF7A8
:1008E000EDFD09F10109B044B9F1070F1FFA88F8CD
:1008F000E5D1029B06EB0B009C421FFA80FB0AD05D
:10090000BBF5A07F14F8017FD5D35F46A3463744DB
:100910005B45BFB2C3D1DDE905B7BBF5A07F14D2FB
:100920009EB1039907248846B8F1EF0F06D83346E5
:100930003246414658460095FFF7C0FD013CB044A1
:10094000A4B21FFA88F8002CEED1049A12F8013FE5
:100950000492079A17449344BFB21FFA8BFB002BF3
:100960008BD109B0BDE8F08F107E001010B50C4699
:1009700006F0DEFD30B100EB40004000013810FB16
:1009800004F080B210BD00BFC0EBC00080B2704761
:100990002DE9F04F2DED0A8B80469DB0DA4804F02A
:1009A00061F8DA4804F05EF8D94804F05BF80324F3
:1009B0002346D84A08210CA803F022FE2146D64837
:1009C00004F0D0F84CF28030D44BD5490CAA00F09A
:1009D00087FC4FF47A7001F0ADFC013CE8D1D148BE
:1009E00004F040F841F2F310CF4BD04ACC4900F06C
:1009F00077FC0824DFEDCE8AFFF7DEFC07EE900AD5
:100A0000013C78EEA78AF7D101F086FDB4EE00AA8A
:100A1000DFEDC79A68EE8A8A9FEDC6BADFEDC6AAF7
:100A20000646B0EE699A0F4608259FEDC18AFFF78A
:100A3000C3FC07EE900A013D38EE278AF7D168EE35
:100A40008B8A28EE0A8A013407EE904AE8EE2A8A59
:100A5000F8EEE76A78EEC97A87EEA67A42F210736A
:100A60004FF0FF316FF0004239EE079AF31847F16B
:100A7000000799421E4672EB07033CBF0E4617461D
:100A800038EEC97A30463946E7EE879A01F0F4FB32
:100A9000B4F5FA7FC8D19FEDA97AC9EE877AF5EE51
:100AA000407AF1EE10FA88ED009A00F11C82B1EE66
:100AB000E78A18EE100A06F073FD06460F4688ED29
:100AC000018A19EE100A06F06BFD9FED99CA0246E5
:100AD0000B46CDE900679A4804F044F8DFED95AA8B
:100AE0009FED95AAF0EE4CBAB0EE4CBA08F1100AA0
:100AF000032405F101094B464021924A0CA80094B9
:100B000003F07EFD10214B468F4A009408A803F0A5
:100B100077FD0CA803F0A6FF23467E4A082106A80D
:100B200003F06EFD21467C4804F01CF84CF2803046
:100B3000864908AB06AA00F0D3FB4FF47A7001F0A7
:100B4000F9FB013CE8D1824803F08CFF4CF28200B3
:100B5000804A7F4908AB00F0C3FB0827DFED748AA9
:100B6000FFF72AFC07EE900A013F78EEA78AF7D13B
:100B700001F0D2FCF4EE009A9FED6D9A68EEA98A1E
:100B800006468B4608249FED6A8AFFF715FC07EEA0
:100B9000900A013C38EE278AF7D168EEAA8A28EE3F
:100BA000298A0137012FE8EE0A8A00F01B81B4EE92
:100BB000E89A42F21073F1EE10FA4FF0FF316FF045
:100BC000004248BFB0EE689AF3184BF1000B99420F
:100BD0001E4672EB0B033CBF0E4693463046594609
:100BE00001F04AFBB7F5967FCCD18AED009A19EE59
:100BF000100A06F0D5FC02460B46574803F0B2FF38
:100C00003BEE09BA002D00F00481F4EEC9BAF1EE12
:100C100010FAB4EEC9CA79FE2BBAF1EE10FA58BF39
:100C2000B0EE4C9AB9F1030F40F0F580B0EE087ABF
:100C3000CBEE077AC8ED027A17EE900A06F0B0FC08
:100C400002460B46454803F08DFFDFED457AB4EED2
:100C5000E79AF1EE10FA00F32381D8ED027A98EDCD
:100C6000007AF6EE006A37EEC77AB4EEE67AF1EE75
:100C700010FA00F1ED8000260127F5EEC07AF1EEC2
:100C800010FA40F3F38039EE6B9A9FED367A89EED5
:100C9000278A28EE078A18EE100A06F081FC024621
:100CA0000B46314803F05EFFF3EE047AB4EEE78AB8
:100CB000F1EE10FA06DD2D4803F0D4FE2C4B002E89
:100CC00008BF1E46D8ED016AB0EE087AD8ED007A6A
:100CD000E6EE877AC8ED037A17EE900A06F060FC1C
:100CE00002460B46234803F03DFFD8F8000006F00B
:100CF00057FC0446D8F80C000D4606F051FCCDE92F
:100D00000401D8F8080037E0587700107877001011
:100D1000B4770010E8770010EC770010F877001037
:100D20000C780010147800102C7800104478001013
:100D300000000000CDCC4C3FCDCC4C3E0000FA432F
:100D40005478001080780010B4780010C478001037
:100D5000D0780010DC780010E878001024790010BA
:100D6000CDCC4C400000C842D0790010007A001071
:100D700040770010447A001006F012FCCDE9020121
:100D8000D8F8040006F00CFC2246CDE900012B4601
:100D90005A4803F0E7FE002F7ED0D8ED027A98ED96
:100DA000007AF4EEC77AF1EE10FA65D917EE900AE0
:100DB00006F0F6FB04460D46514A1821CDE90045E0
:100DC0000CA803F01DFC002E7DD033464CF2803081
:100DD0004C490CAA00F084FA01201DB0BDEC0A8B2E
:100DE000BDE8F08F42F210734FF0FF316FF0004218
:100DF000F3184BF1000B99421E4672EB0B033CBFFC
:100E00000E4693463046594601F036FAB0EE689ADF
:100E1000B8E6F0EE49BA3C4803F024FE0524234628
:100E200008213A4A06A803F0EBFB41F20640384B92
:100E3000384906AA00F054FA4FF47A7001F07AFAB1
:100E4000013CECD14D46B0EE49CA0AF1040A4FE626
:100E5000314803F007FED8ED027AF5EEC07AF1EEE4
:100E600010FA4FF000072D4E3FF70DAF0022002380
:100E70002B4803F077FE25E72A4803F073FE4CF277
:100E80008200294B294A2A4900F02AFA00201DB085
:100E9000BDEC0A8BBDE8F08F264803F0E3FD7CE74C
:100EA000254803F0DFFDD8ED027A98ED007AF6EEE2
:100EB000006A37EEC77AB4EEE67AF1EE10FA0AD499
:100EC00000271E4ED9E641F206401D4B1D490CAAD3
:100ED00000F006FA80E7104803F0C4FD0027D8EDC3
:100EE000027A164EC9E617EE900A06F075FB08EE78
:100EF000100A06F055FB06460F46E0E5587A00104A
:100F0000307B00103C7B0010F87800100079001056
:100F1000047900101C79001048790010287700101F
:100F2000D0790010B47A0010007B0010187B0010FC
:100F3000287B0010747A0010907900100C77001054
:100F4000447B00105C7B00102DE9F04F82462DEDB4
:100F50000A8B0C46DAED007A9AED02BAA1B0A448E9
:100F60003BEE67BA0F9103F0FDFD204600F08AFAD0
:100F70004FF00808DFED9F8AFFF71EFA07EE900A90
:100F8000B8F1010878EEA78AF6D1F4EE007A68EE9F
:100F9000A78A01F0C1FA0023CDE910010446002020
:100FA00009EE103A0AEE903A0BEE903A0D460A938B
:100FB00003F098FC20F0200051289FED8FAADFED70
:100FC0008F9ADFED8FCA9FED8FCAC146C3468E4F01
:100FD00036D008269FED878AFFF7EEF907EE900AD4
:100FE000013E38EE278AF7D1F4EE007A68EE8A8A5D
:100FF00028EE278A07FB09F3844AE8EE298AB2EB38
:10100000730F80F0918042F210734FF0FF316FF058
:101010000042E31845F1000599421C4672EB0503B6
:101020003CBF0C4615462046294601F025F9002014
:1010300003F058FC20F02000512809F10109C8D123
:101040000A9C44F6206003F04DFC0230F9D1B8F15F
:10105000000F00F0BD8007EE908AB8EE678A204648
:1010600006F09EFACAEE887ACDE90A0117EE900AD8
:1010700006F096FA804619EE100A894606F090FAB4
:1010800007EE90BAF8EE677A9FED5D7AC7EE886A50
:1010900066EE877A044617EE900A0D4606F080FA4F
:1010A000DDE90A2306460F46DDF83CB0CDE90245EE
:1010B0005946CDE90089CDE90467554803F052FD52
:1010C000DAF8080006F06CFACDE90801DAF8000059
:1010D00006F066FADDE90A23CDE90601CDE90467E9
:1010E0005946CDE90245CDE900894A4803F03AFD69
:1010F0001821CDE90089484A12A803F081FA20217D
:10110000CDE90267CDE90045444A18A803F078FA12
:1011100041F2F310424918AB12AA00F0E1F821B0F5
:10112000BDEC0A8BBDE8F08FDAED007A78EEE77A55
:1011300087EE8B8A28EE2C8A9AED037AB5EEC08A68
:10114000F1EE10FAB4EEE87A48BFB0EE6B8AF1EE39
:1011500010FA4CBF0126002601F0DEF9109B08F1C1
:101160000108C01A119BB34461EB030101F008FEB2
:1011700007EE900AC7EE8C7A17EE900ACDED0A7A48
:1011800006F00EFA02460B4618EE100ACDE90C23C3
:10119000049606F005FACDE9020118EE900A06F071
:1011A000FFF9DDE90C23CDE900010F991D4803F09B
:1011B000D9FCB4EEC89AF1EE10FA314618EE100AD6
:1011C0007AEE88AA48BFB0EE489A00F009F91AE70B
:1011D000154803F047FC44F208204246134B1449DB
:1011E00021B0BDEC0A8BBDE8F04F00F079B800BF2C
:1011F000687B001000000000CDCC4C3FCDCC4C3EB5
:101200000000C84200247449CDCCCCCC99999919DE
:10121000D07B0010247C00104C7C00105C7C001003
:101220007C7C0010987B0010B47B0010447B001085
:10123000C87B0010F0B583B0002837D04CF282078D
:101240003C234FF4A072B42100200097FFF7A6FAC8
:101250000420FFF799FBC0F13C067608B4361D4D1B
:10126000B6B2042421462846FFF780FBB0F5967FEE
:1012700004F1FF3302D9DCB2012CF3D12146284618
:10128000FFF774FB23464FF6FF74B0F5A07F34BF21
:10129000C0F5A07000202A46314638BFC0F34F0089
:1012A00001970094FFF7CEFA03B0F0BD44F208278F
:1012B0003C234FF4A072B4210097FFF76FFA04208B
:1012C000FFF762FBC0F13C067608B436024DB6B2B9
:1012D000C7E700BF887C00101C790010FFF74CB9ED
:1012E0002DE9F0410E4682B0804615461F46FFF7B5
:1012F00065FA2EB3062421463046FFF737FBB0F5DA
:10130000967F04F1FF3302D9DCB2012CF3D12146E0
:101310003046FFF72BFB4FF6FF71B0F5A07F38BFCB
:10132000C0F5A070009128BF0020234632464FF040
:10133000320138BFC0F34F00CDF80480FFF782FAC6
:101340002DB3042421462846FFF710FBB0F5967F05
:1013500004F1FF3302D9DCB2012CF3D12146284637
:10136000FFF704FB4FF6FF71B0F5A07F38BFC0F563
:10137000A070009128BF002023462A464FF0870125
:1013800038BFC0F34F00CDF80480FFF75BFA0FB30E
:1013900002213846FFF7EAFA0346B3F5967F8CBF81
:1013A0000124022438462146FFF7E0FA4FF6FF7584
:1013B000B0F5A07F34BFC0F5A070002023463A46A8
:1013C0004FF0B90138BFC0F34F00CDF8048000954D
:1013D000FFF738FA02B0BDE8F08100BF000000005E
:1013E00007EE100ADFED247AB4EEE77AF1EE10FA98
:1013F00030B50D4685B037DC06F0D2F8CDE90001F6
:1014000008211E4A0DEB010003F0FAF807242146DB
:1014100002A8FFF7ABFAB0F5967F04F1FF3302D9CB
:10142000DCB2012CF3D1214602A8FFF79FFA234634
:1014300000214FF6FF74B0F5A07FCDE9004138BF21
:10144000C0F5A0700E4C2CBF0020C0F34F00462109
:1014500002AAFFF7F7F92378AB4203D02846FFF73B
:10146000E9FE257005B030BD01A1D1E90001C5E755
:1014700000000040333F8F409AF97944907C00107F
:101480002A250020F0B5044683B00020FFF796F926
:1014900003212046FFF76AFAB0F5967F55D902215D
:1014A0002046FFF763FAB0F5967F8CBF012602262F
:1014B00031462046FFF75AFA00254FF6FF77B0F580
:1014C000A07F3CBFC0F5A07CCCF34F003346224642
:1014D00028BF0020CDE900750A21FFF7B3F90720E6
:1014E000FFF752FA022104461948FFF73FFA034674
:1014F000B3F5967F8CBF0126022615483146FFF7CB
:1015000035FAB0F5A07F28BF28464FF6FF774FF099
:10151000000504F14E0438BFC0F5A070A4B2214606
:1015200038BFC0F34F003346094ACDE90075FFF7D5
:1015300089F9084B28461D70FFF77CFE29460020DC
:1015400003B0BDE8F040FFF74BBF0326B0E700BF94
:10155000987C00102A25002010B44FF480740C4BA6
:1015600053F8202003EB8003C00082F0400200F11A
:10157000804003F5805C02F0C00200F5203003F5E6
:101580004053CCF8002041601C605DF8044B70476C
:101590000480034010B4084CC90041EA820154F8A9
:1015A000202004EB8003514003F5805301F00C012F
:1015B0005DF8044B1960704704800340064B4022DD
:1015C00003EB800319B103F500531A60704703F56C
:1015D00040531A60704700BF0480034030B44FF09E
:1015E000000343EC440043EC400005254FF48074B5
:1015F0000B4BC20053F8201003EB800081F0400138
:1016000002F1804303F5203301F0C00200F5805160
:1016100000F540500A605D60046030BC704700BF58
:10162000048003400FB400B583B0049C074803F066
:1016300019FA3CB105A92046019103F00BF80448C2
:1016400003F010FA012003F01DF800BFA07C001089
:10165000B07C001070B58646EFF3108572B6124C60
:10166000D4E8CF6F0120002EFAD1C4E8460F002E37
:10167000F6D1BFF35F8F4FF0010CC80801F00703EC
:101680000CFA03F31EF800C01CEA030608D14CEA6A
:10169000030C0EF800C0C4E88F6F85F3108870BD8E
:1016A0001046FFF7BFFF00BF3F1C0020F8B5EFF367
:1016B000108772B61C4ED6E8CF5F0124002DFAD1F8
:1016C000C6E8454F002DF6D1BFF35F8F9A421BD875
:1016D000012502E00132934222D3D40810F804E03D
:1016E00002F0070C05FA0CFC1EEA0C0FF2D14EEAD0
:1016F0000C0E00F804E010460023C6E88F3F87F385
:101700001088984207DBF8BD0023C6E88F3F87F3B7
:1017100010884FF0FF300029F5D00698FFF782FFC0
:101720004FF0FF30E8E700BF3F1C0020044A10786C
:10173000431CDBB2182B28BF10231370704700BF67
:10174000E815002010B5054C82B001461F23182271
:1017500000940348FFF7AAFF02B010BDB47C00104C
:10176000502000204FF0E022936843F00053936034
:10177000704700BF0021044B03F12002C3E88F1F14
:1017800001339342FAD17047341C00204FF0E0231C
:101790004FF08032C3F80024C3F80424C3F80824AF
:1017A000C3F80C24C3F81024C3F81424C3F8182475
:1017B000C3F81C24C3F82024C3F82424C3F8282425
:1017C000C3F82C24C3F8302462B67047012300F01C
:1017D0001F029340400941B1800000F1604000F5D4
:1017E0006140C0F8803103607047024A203042F8FF
:1017F0002030704700E100E00123064A410952F819
:10180000212000F01F0003FA00F01040003818BF3C
:101810000120704700E100E001224309034900F084
:101820001F008240403341F82320704700E100E070
:10183000054A10309268054B52F82000C01A2F2834
:101840008CBF00200120704700ED00E0EC15002067
:10185000F8B50D46EFF3108772B6124ED6E8CF2FCB
:101860000123002AFAD1C6E8423F002AF6D1BFF38D
:101870005F8F0D4B00F110049B680C4A53F8243025
:10188000934203D0994201D001F002F8064B9B68C5
:1018900043F82450BFF35F8F0023C6E88F3F87F3E0
:1018A0001088F8BD3D1C002000ED00E01101001083
:1018B0002DE9F04F81468B46164683B0EFF3108337
:1018C00072B6DFF8D0A10093DAE8CF1F0123002918
:1018D000FAD1CAE8413F0029F6D1BFF35F8F664BCA
:1018E00093F90040002CC0F2A080644D04EB440743
:1018F00005EB870898F8061009F110091970604B7C
:10190000BF009B6853F829006300411B2F292FD982
:101910005C49884240F0A4801C445B4B02372F4452
:10192000043BDB1BC3F34A036FEAC3434FF421417B
:101930006FEAD34325F8241005EB840463804BF64B
:101940000153A380FF2348F00100E671C4F808B0FA
:10195000A3714B4B9B6843F82900BFF35F8F0023B3
:10196000CAE88F3F009B83F3108803B0BDE8F08F77
:1019700020F0010E9EF80710B1422ED84FF42143FB
:10198000EB53414BB91C2944043B04375B1A2F44E9
:10199000AEF10401C91BC1F34A043C49C3F34A0335
:1019A0000B432143A8F804103949A8F802304AF63D
:1019B000AA2073465B1B5B415843000D88F8076003
:1019C00088F80600C8F808B048F00100CEF800100A
:1019D000BFE7D179B1422ED996469EF906C00CEBED
:1019E0004C02BCF1000F05EB8202F2DA4BF601511A
:1019F0000EF10402A8F10407BF1AC7F34A076FEA01
:101A0000C7476FEAD7478EF8064003EB0408204C1F
:101A100005EB8803AEF8047045F82840998083F8F8
:101A200006C0DE71C3F808B093E700F031FF124B37
:101A300093F9004059E7724632F8041F490514D45F
:101A40004915023102EB410101916FF00701C91BF9
:101A5000019F491B3944C1F34A0141F46041C9E780
:101A6000019300F015FF019B56E701F5FF1101F509
:101A7000FF511F31E4E700BF28250020EC150020AE
:101A800000ED00E0110100101C16002000E0FFFF37
:101A9000014880473D1C0020F0B5EFF30585EDB20D
:101AA000EFF3108C72B62649D1E8CF2F0123002A1C
:101AB000FAD1C1E8423F002AF6D1BFF35F8F214E31
:101AC00040F0010EB4684AF6AA2354F825701E4A65
:101AD0000446A41A644163431B0D77455BB21BD0D7
:101AE00092F906409C421CD092F912409C4223D0AD
:101AF00092F91E409C4221D092F92A409C4208BF94
:101B000003240FD0114A0024157813708571C1E8A1
:101B10008F4F8CF31088F0BDB2680D4C42F8254011
:101B2000F0E7002404EB440402EB8402FF249471E8
:101B30004BF601549480E5E70124F3E70224F1E732
:101B40003D1C002000ED00E0EC15002028250020C1
:101B50001101001010B5074C82B001460523002288
:101B600000940548FFF7A2FD0028A8BFC0F133008C
:101B700002B010BDD07C00102E250020014B0B447C
:101B800003607047341C002070B5104C104DAC42FF
:101B90000ED2FF26236863B1FFF7C8FD0146204639
:101BA000FFF7ECFFA680BFF35F8F0834AC42F1D3A0
:101BB00070BDFFF7BBFD01462046FFF7DFFF267132
:101BC000BFF35F8F0834AC42E4D370BDC817002068
:101BD000D017002010B50446FFF7A8FD01462046A7
:101BE000FFF7CCFFFF232371BFF35F8F10BD00BF52
:101BF00010B504460120FFF7A5FD034B0344236005
:101C0000BFF35F8F10BD00BF341C0020024B0B449C
:101C10000360BFF35F8F7047341C00200D4B1A68C0
:101C2000EFF3108172B6D2E8CFCF0120BCF1000FE4
:101C3000F9D1C2E84C0FBCF1000FF4D1BFF35F8FB4
:101C400000221B68C3E88F2F81F3108840BF00205B
:101C500000217047082500202DE9F04F2DED028B63
:101C600085B0EFF30583DBB2103B9A0818BF012261
:101C70004FF0010103F0030B18BFAF4DAF4B08BF8E
:101C8000AF4D0BEB820253F8226001FA0BF205F51F
:101C900041539FEDA78B01925A602FE0B3881C043B
:101CA00040F19380B379002B40F0DD80B6F9082035
:101CB000002AC0F21E81736902EB420203EBC203E9
:101CC000D3E90247B7F1FF3F08BFB4F1FF3F0ED0A1
:101CD00005EB8B01AB6A0A69D21AE31A934205D36A
:101CE00001232A6A03FA0BF3134200D10C61284640
:101CF00000F00AFCA042B941C0F2FB80B6F90830FE
:101D0000019A002B0093EA63C8DBD6F8148003EB3A
:101D10004309284608EBC907D7E9024A00F0F4FB5B
:101D2000A04271EB0A01B9DBBAF1000FC0F2C38027
:101D3000D7E90431834A934200F0ED807A88B6F9FE
:101D4000080092B242EA0040984702460B4652EA27
:101D5000030100F0B080002B80F2D180B4EB020EC2
:101D60006AEB030A38F93930C7E902EA002B95DB40
:101D7000716903EB430201EBC202D2E90270BE4576
:101D80007AEB000C4FEA430288DBB4462CF8083F9C
:101D900006E003EB430001EBC0005A00D0E90270FB
:101DA000BE451A447AEB000001EBC20404DB31F9B2
:101DB0003230A446002BECDA28F83930009BACF81E
:101DC0000030B3881C043FF56DAF3369EFF3108228
:101DD00072B6D3E8CF0F01210028FAD1C3E8401F23
:101DE0000028F6D1BFF35F8F4FF6FF74B088002351
:101DF000316900B2B480C1E88F3F82F31088984205
:101E0000FFF650AF0746A946746906F1080807EBCC
:101E1000470E04EBCE03D3E90250B6F90830C446AE
:101E2000002B13DBB246009704E034F936309446B9
:101E3000002B09DB03EB430604EBC602D2E9027177
:101E4000BD4270EB0101F0DA5646009FACF800701D
:101E500034F93E7024F83E30002FD8DAB3794D467D
:101E6000002B3FF423AF0023B371B6F9083006F11D
:101E70000808581C3DD01A46776903E08046591C73
:101E80003FF416AF03EB430107EBC100B0F802C00B
:101E90001C461CF4004F9E4637F93130EED0944278
:101EA00080ED028B05D0A8F80030328927F8312068
:101EB00034817246E3E738F8393033813369EFF320
:101EC000108272B6D3E8CF0F01210028FAD1C3E8FF
:101ED000401F0028F6D1BFF35F8F7388316928F85F
:101EE0003930009B73800023C1E88F3F82F3108854
:101EF000D4E640BF05B0BDEC028BBDE8F08F2846AC
:101F0000CDE9022300F000FB029A039B10EB020EC6
:101F100043EB010A26E708460B690291984700281F
:101F2000C9D00299D1E9002311E700BFAFF30080C7
:101F3000FFFFFFFFFFFFFFFF00800B40E0240020BA
:101F400000000B40591C00102DE9F84F364C256954
:101F50002DB1BDE8F84F0A213448FFF70FBEDFF876
:101F6000E4800321404600F0BDFA0326C4F80C804B
:101F7000FFF7DCFB4FF0504C2D4B267003442361E0
:101F8000DCF800300F216370636961801D834FF0BE
:101F90000405A3F878504FF00505A3F890504FF0D2
:101FA0000605A3F8A8504FF007050E214FF6FF7263
:101FB00008274FF00A0EA3F8C0504FF001094FF068
:101FC0000C0C4FF0020B4FF0090A0D204FF00B05DF
:101FD000A3F868111749A280A3F808E1A160A3F84B
:101FE00048B0A3F8F0A0A3F82051A3F838C1A3F893
:101FF0005001A3F83090A3F86060A3F8D8701A805D
:102000000D4B3046C8F820700C49DC60FFF720FC0F
:1020100049463046FFF7DAFB094B0A211F640348A3
:10202000BDE8F84FFFF7AABD3416002008250020B0
:10203000341C0020FFFF1000E0240020591C001079
:1020400000200B4000000B40004870473416002071
:10205000F8B59DF82050044617461E4635B900F0E5
:102060005BFA874266EB010100295CDB2169EFF333
:10207000108372B6D1E8CF0F01220028FAD1C1E84F
:10208000402F0028F6D1BFF35F8FB4F902206569B5
:1020900002EB4201002A4FEAC10C206905EBC101A5
:1020A00039DB35F80CE0A4F802E04FF0000EC0E890
:1020B0008FEF83F310884888069B0130C0F30E0031
:1020C000012838BF01200B61079B48804B61C1E9A3
:1020D000027640EA02402369EFF3108172B6D3E83A
:1020E000CF7F0126002FFAD1C3E8476F002FF6D12A
:1020F000BFF35F8FA38825F80C30A2802369C3E863
:102100008FEF81F310880122E368217803F50153F2
:102110008A405A60F8BD0022C0E88F2F83F31088F0
:102120004FF0FF30F8BD2846F8BD00BF0146F0B5BE
:102130000069EFF3108772B6D0E8CF5F0124002D5D
:10214000FAD1C0E8454F002DF6D1BFF35F8FB1F94A
:1021500002E04C690EEB4E0CBEF1000F4FEACC05CD
:10216000086904EBCC0C3CDB665B4E800026C0E8C3
:102170008F6F87F31088BCF80200CCE9022301308E
:10218000C0F30E00012838BF0120059BACF8020007
:10219000CCF81030069B40EA0E40CCF814300B69A6
:1021A000EFF3108272B6D3E8CFCF0127BCF1000F56
:1021B000F9D1C3E84C7FBCF1000FF4D1BFF35F8FBE
:1021C0008B886353A1F804E00B69C3E88F6F82F337
:1021D00010880122CB68097803F501538A405A60C0
:1021E000F0BD0023C0E88F3F87F310884FF0FF3029
:1021F000F0BD00BF03464089B0EB214F37DD586981
:102200000A1402EB420210B500EBC2001C69EFF3A6
:10221000108C72B6D4E8CFEF0122BEF1000FF9D1D5
:10222000C4E84E2FBEF1000FF4D1BFF35F8F428898
:1022300089B292B28A4207D000221B69C3E88F2F6D
:102240008CF31088002010BD42F40042428001212E
:10225000002218699971C0E88F2F8CF310881C78C0
:10226000DA68084602F50153A140596010BD00200C
:10227000704700BF407870472DE9F041851F41F15C
:10228000FF37A84271EB070338BF002582B038BF83
:102290002F4604460E4600F03FF9281A67EB010C62
:1022A00001287CF1000C06DA2046314602B0BDE878
:1022B000F04100F069B900F02FF9854267EB0101A8
:1022C00000290ADB0021174B2A46009316483B469B
:1022D0000191FFF72BFF0130E6D04FF0000C134ABD
:1022E0001349536A9F4204D8906AA842DCD29F42A5
:1022F000DAD10B68EFF3108072B6D3E8CF8F5FF0BE
:10230000010EB8F1000FF8D1C3E848EFB8F1000FA3
:10231000F3D1BFF35F8F0B68C3E88FCF80F31088D2
:1023200020BFDEE71D1C00103416002000000B400B
:10233000082500202DE9F04182B0064600F0ECF8B7
:102340004FF47A7304464FF0FF306FF00042E6FB23
:102350000341A04272EB01033ABF044615460D4605
:10236000A61F45F1FF37B44275EB07033CBF0026BB
:10237000374600F0D1F8301A67EB0101012871F1FE
:10238000000106DA2046294602B0BDE8F04100F01F
:10239000FBB800F0C1F8864267EB010100290ADBB7
:1023A0000021174B3246009316483B460191FFF738
:1023B000BDFE0130E6D04FF0000C134A1349536ABA
:1023C0009F4204D8906AB042DCD29F42DAD10B68B7
:1023D000EFF3108072B6D3E8CF8F5FF0010EB8F143
:1023E000000FF8D1C3E848EFB8F1000FF3D1BFF305
:1023F0005F8F0B68C3E88FCF80F3108820BFDEE7C4
:102400001D1C00103416002000000B400825002081
:102410002DE9F04306460D4683B0EFF30584E4B2A0
:102420003CB12D4B5A6AAA421CD2002003B0BDE831
:10243000F0832A4FD7F80C9097F80080484600F0B8
:1024400063F808F1040859F828301B1A301A65EBB4
:102450000101984271F1000110DB20BF1E4B5A6A46
:10246000AA42E2D314BF012400249B6AB34234BFC2
:10247000204644F0010003B0BDE8F08300F04CF8C2
:10248000864265EB0101002914DB154B3846CDE986
:10249000003432462B46FFF749FE011E0ADD0E4B83
:1024A0005A6AAA4216D39B6AB34211D30B48FFF76C
:1024B000A1FEB6E7084B5C6AAC42B6D3641B18BFFA
:1024C00001249B6AB34234BF204644F00100ADE7CB
:1024D000AA42EBD120BFE9E700000B4034160020F0
:1024E0001D1C001010B4054B054C064AA04214BF39
:1024F0001846581C5DF8044BFFF7ACB85420002078
:1025000000800B40EC7C00100346416A0A46986A42
:10251000596A8A42FAD17047034B596A0A46986A47
:10252000596A9142FAD1704700000B4030B4154A05
:10253000536A9C46946A536A6345FAD10219594119
:102540004FF0000528BF01250E4B5B6AB5B15A1C40
:1025500008BF1A4608D04FF0FF310A460948436ABF
:102560008B42FCD38B4207D1064902E0486A98426D
:1025700002D1886A9042F9D330BC70479942EDD8B5
:10258000F0E700BF00000B40074A536A9942FCD8AD
:10259000994207D1044B02E05A6A914202D19A6AE9
:1025A0009042F9D8704700BF00000B4000EB400C90
:1025B0004FEA8C0C0CF1804C0CF5803CF0B51646C3
:1025C000DCF80420051FB2F5803F38BF4FF480329D
:1025D000EDB238BFCCF80420012D2AD94FF40067A2
:1025E000254C0CF54052176054F82020B2B9DCF8A5
:1025F0000020012D82EA461202F0E0020CF580561E
:1026000032602AD94FF4006144F820304FF480330F
:102610000CF500521160CCF80430F0BD6769B7FBCF
:10262000F2FE0EF1010E0EEB4E0EBEF1030EFCD2C9
:10263000DDE70129D2D103240CF540521460DCF807
:102640000820D207FBD5DCF800200B4C82EA4612AA
:1026500002F0E0020CF5805632600122DCF80050F6
:102660004D4005F00305356002FA01F1DCF8082061
:102670000A42FBD0C6E700BF58200020014B53F8A8
:10268000200070475820002070B4039D04682D037B
:1026900045EA03451B4B002CB3FBF1F3B2FBF3F609
:1026A0001FDB194A194B904214BF4FF480424FF47C
:1026B0000042174C1A6003F580531A60A36832EA8F
:1026C0000303FBD1212200F54053043301608660EF
:1026D0001A600268002AFCDA0822C5601A6070BC21
:1026E0007047036803F03F038B42DAD18368C3F37A
:1026F0000B03B342D5D1C36803F4EE23AB42D0D170
:10270000EDE700BF001BB70000800540002002403D
:102710000000024030B44FF080441C4B1C60E0B11C
:102720001B4CA3F54053DC611A4C40F001004440BF
:102730001C62596298624FF080454FF0E061134B84
:102740001548164C1D60846019604AB930BC4FF0C2
:102750000042A3F580531A607047114BD861EAE735
:102760004FF47A7303FB02F2B2F1807F2ABF6FF05D
:102770007F4313461A464FF080410A4C08482360B5
:10278000094B426030BC1960704700BF00B00D407B
:10279000D3C007B02D3FF84F00A00140F3FFFF0169
:1027A00000800D40B824002000A00D40012300EB64
:1027B0004000800000F1804000F58410416003601B
:1027C000704700BF002370B5DB8A04460D46002227
:1027D00042E800F2520254BF1021042144F2522078
:1027E000984786462B462246F446BDE870400A21AB
:1027F0004FF48170604700BF0023DB8A002242E86B
:1028000000F2520201D4102118470421184700BFDA
:1028100008B503460846191E02DB1AB140F0300025
:10282000FFF7D0FF40F02000FAE700BF034AD2F8DC
:102830002838002BFBD0BFF35F8F704700000E409D
:102840000021044B044ABFF35F8F43F8041B9342FB
:10285000F9D170470C080E402C080E4010B44FF40C
:102860008D704FF42A64064A064B07491460D06005
:1028700019605368002BFCDA5DF8044B704700BF09
:102880000080044000A0044000B0FA00704700BF80
:1028900008B50148FEF7C6FE107D001038B5054C9E
:1028A000054DAC4204D254F8043B9847AC42FAD3ED
:1028B00038BD00BFF87500103876001010B4074816
:1028C000074C084B084A094904601A608B6832EAD1
:1028D0000303FBD15DF8044B704700BF00200240AA
:1028E0007F3BEFEF00300240F6FFF30300000240B1
:1028F000044BDB6CB3F5004F03D14FF48022024B45
:10290000DA64704700001150002011504FF0E022AF
:10291000044BD2F8881D0B43C2F8883D10EE3004FA
:10292000704700BF030330006FF06041044B054A5D
:1029300019609368DB4333F06043FAD1704700BFFE
:10294000003002400000024010B545F25320FFF76E
:1029500053FFBDE8104003460420184710B545F268
:102960005320FFF749FFBDE81040034601201847F8
:10297000FEF700BF1449154B70B55C1AA610442E23
:10298000324628BF4422124D9200284604F05AFDD8
:10299000B4F5867F13D80F4AC6F1440012D02B1924
:1029A000410803EBC101C3E9002208338B42FAD18D
:1029B000C30704D520F00100304445F82020064B21
:1029C0009D6070BD4320F8E700000010100100106A
:1029D000000000201101001000ED00E0002370B5A0
:1029E0002B4C82B0C4F88430FFF738FF0122294B0A
:1029F000DA63636C012BFCD10321264A244B11635B
:102A00009C6B012CFCD10226052521460523224A78
:102A100022480096FFF738FE21462B46204A2148DF
:102A20000095FFF731FE0022042031461E4BFFF7D0
:102A3000BDFD2146284600221C4BFFF7B7FD0022B2
:102A4000082011461A4BFFF7B1FD0022092011465C
:102A5000174BFFF7ABFD002206201146134BFFF783
:102A6000A5FD0022114B07201146FFF79FFD042012
:102A7000FFF704FE00240F4BA3FB0035AD0CE0B2C2
:102A800029460134FFF792FE062CF8D102B070BD42
:102A90000000014000300140002F6859000005404F
:102AA000008C864700800540001BB70080D1F008ED
:102AB000006CDC0283DE1B4386B003B451FC0804C7
:102AC000CDE9020151FC0904CDE9040151EC0A04ED
:102AD000CDE9060103BCF047BDE800504EEC00C450
:102AE000BDE800504EEC01C4BDE800504EEC02C4FD
:102AF00000BD000000B5FFF7DFFF02E010FE30F47C
:102B0000F8D441EC100443EC112400EE010410EE63
:102B1000010480EE200451EC1004704700B5FFF76B
:102B2000CBFF02E010FE30F4F8D441EC100443EC8B
:102B3000112400EE010410EE210480EE200451EC7B
:102B40003004704700B5FFF7B7FF02E010FE30F425
:102B5000F8D410B541EC100443EC112451EC0404FA
:102B600053EC0524A0FB024C5FF0000EE0FB03CE0B
:102B7000E1FB02CE4CEC20440024E1FB03E444ECF6
:102B800030E480EE200451EC5004BDE81040704762
:102B900000B5FFF791FF02E010FE30F4F8D441ECED
:102BA000100443EC112451EC2104A0FB01126FEA44
:102BB000820252FB100052FB12F252FB1000A0EBFB
:102BC000D07C53EC04245CFB13F153EC1524A1FBE3
:102BD000022001FB030053EC4424A2EB000050FB55
:102BE0001CF24FEA111312EB017043EBE27140EA61
:102BF000515020EA915020F0070053EC7524A0FBBF
:102C0000023C53EC752400FB03CC01FB02CC53ECDB
:102C10000424ACEB824C40EA5C70A0F1010041EC72
:102C2000400480EE200451EC7004704700B5FFF7BB
:102C300043FF02E010FE30F4F8D440EC700400EEE4
:102C4000010410EE210480EE200451EC30047047A2
:102C500000B5FFF731FF02E010FE30F4F8D440EC8D
:102C6000600400EE010410EE210480EE200451EC1B
:102C70003004704700B5FFF71FFF02E010FE30F48C
:102C8000F8D441EC800400EE010410EE010480EE63
:102C9000400410EE1304704700B5FFF70DFF02E08B
:102CA00010FE30F4F8D441EC800400EE010410EE84
:102CB000010480EE400410EE3304704700B5FFF7C6
:102CC000FBFE02E010FE30F4F8D441EC100443ECBB
:102CD000112400EE010410EE3004C0F300707047C0
:102CE00000B5FFF7E9FE02E010FE30F4F8D443EC43
:102CF000102441EC110400EE010410EE30F48CBFFE
:102D000001200020704700BF00B5FFF7D5FE02E0AC
:102D100010FE30F4F8D443EC102441EC110400EE22
:102D2000010410EE30F42CBF01200020704700BFDA
:102D300000B5FFF7C1FE02E010FE30F4F8D441EC1C
:102D4000100443EC112400EE010410EE30F42CBF0B
:102D500001200020704700BF00B5FFF7ADFE02E084
:102D600010FE30F4F8D441EC100443EC112400EED2
:102D7000010410EE30F48CBF01200020704700BF2A
:102D80000022002980F2A980404261EB4101B1B3E9
:102D9000B1FA81F3083B16D4994010FA03FCC3F151
:102DA000200320FA03F040EA0100A2EB0302C2F183
:102DB00095021CEB0C0C40EBC25040F0004020D0C0
:102DC000FE2A16D2704703F1210311FA03FC5CEAD4
:102DD000000CC3F1210321FA03F0A3EB020202F17C
:102DE000B50240EBC25040F000400AD0FE2A38BF86
:102DF00070474FF00040A8BFCFF680707047114673
:102E00000AE028BF20F00100FE2A38BF7047F0E733
:102E1000002880F233804042B0FA80F3083B0CD4A3
:102E2000984001EB0302C2F1950200EBC25040F062
:102E30000040FE2A38BF704713E003F1210310FA67
:102E400003FCC3F1210320FA03F0A3EB010202F11A
:102E5000950240EBC25040F0004008D0FE2A38BF37
:102E600070474FF00040A8BF40F0FF40704728BFB8
:102E700020F00100FE2A38BF7047F2E720B3B0FA15
:102E800080F3083B0AD4984001EB0302C2F195029B
:102E900000EBC250FE2A38BF704711E003F1210356
:102EA00010FA03FCC3F1210320FA03F0A3EB0102A3
:102EB00002F1950240EBC25007D0FE2A38BF70479E
:102EC000ACBF4FF0FF400020704728BF20F001004A
:102ED000FE2A38BF7047F3E7002289B3B1FA81F3C5
:102EE000083B14D4994010FA03FCC3F1200320FAE4
:102EF00003F040EA0100A2EB0302C2F195021CEBD1
:102F00000C0C40EBC2501ED0FE2A14D2704703F1C5
:102F1000210311FA03FC5CEA000CC3F1210321FA3E
:102F200003F0A3EB020202F1B50240EBC2500AD05B
:102F3000FE2A38BF7047ACBF4FF0FF4000207047FB
:102F40001146FFF79BBF28BF20F00100FE2A38BFC3
:102F50007047F0E79A4238BF88547047704700BF07
:102F60002DE9F04F83B09946DDE90DAB0F9B884604
:102F700011469A07074616D1DA453AD20C460D4655
:102F8000ABEB0A060E4422464B4641462020013454
:102F9000B847B442F7D12946BAF1000F08D120460C
:102FA00003B0BDE8F08F0C46BAF1000F10D00E460A
:102FB00055460C9B2E449A440191721B4B46013D91
:102FC00041461AF8010D3446B847002DF5D1019954
:102FD0000F9B9B07E3D5651AAB45E0D922464B46CC
:102FE000414620200135B8475D4504F10104F5D381
:102FF000D5E70C46BAF1000FD9D1D0E72DE9F04F53
:103000000F9FDDF8248017F0020F0A9C9DF82CA07A
:103010000E9DDDE90C9644D1F5BBB44241D207F0D8
:10302000010B04F1FF3C4FF0300EC44404E00134C6
:10303000A6420CF801EF01D9202CF8D1BBF1000F0A
:1030400000F08880A5422CD904F1FF3C4FF0300EEF
:10305000C44404E00134AC420CF801EF21D0202C30
:10306000F8D117F0100F0ED017F4806F54D1A6428C
:1030700063D0A54261D0B9F1100F50D0B9F1020F61
:1030800056D0202C29D12024CDE90B57CDE9098435
:10309000BDE8F04FFFF764BF17F0010B34D1B44225
:1030A000BFD317F0100F1ED017F4806FE3D1002CA0
:1030B000DDD1B9F1100F63D0B9F1020F77D0302410
:1030C00088F800400124BAF1000F11D17E0748D5DD
:1030D0002B2608F804600134D6E7264601344FF069
:1030E000300C08F806C0202CCDD0BAF1000FEDD07E
:1030F0002D2608F804600134CDE90B57CDE9098489
:10310000BDE8F04FFFF72CBFBAF1000F30D0B4424A
:1031100005F1FF3585D395E7B9F1100FB3D1BE06A0
:103120003BD5202CAFD0582608F804600134A8E71E
:10313000202CA8D02646013407E0661EB9D0B9F18C
:10314000100F36D0B9F1020FC9D14FF0620C08F858
:1031500006C096E717F0100FC5D017F4806F86D021
:1031600089E73E0790D5202608F8046001348BE7F4
:1031700017F00C0F00D0013DB442FFF452AF61E7ED
:10318000BC0612D4782488F80040302488F8014026
:103190000224BAF1000F99D0AAE7202C3FF473AFB4
:1031A000782608F8046001346BE75824EBE76224C2
:1031B000E9E717F0200FA4F1020C04D04FF0580EED
:1031C00008F80CE08BE74FF0780E08F80CE086E783
:1031D00000B9704701F004BC10B1D1E900311847C3
:1031E000704700BF000000002DE9F04F97B09DED43
:1031F000207BDDE9225B0746884651EC170B249CB7
:1032000099460C920B4602468DED047B0794FFF71E
:1032100059FD002840F0F481DDE904014FF0FF3250
:103220006FF48013FFF760FD002840F01B81DDE99B
:1032300004014FF0FF32AC4BFFF792FD002840F045
:10324000EE80DDE90401A4A3D3E90023FFF788FDA4
:10325000002840F0D380DDE90401A1A3D3E90023D5
:10326000FFF742FD002840F0C980DDE9040100229B
:103270000023FFF739FD002840F0E88023460D9039
:1032800013F4806F08BF062530212B460EAAA5F146
:10329000200605E0013BB34202F8011B00F09381D8
:1032A000092BF7D81E46ED1ADDE90401FFF7E6FC0D
:1032B0008E4B044603EBC60393ED007B8DED087B3C
:1032C000FFF7B8FC02460B46DDE90401FFF72AFCD4
:1032D000DDE90823FFF73AFC02460B46CDE90A2355
:1032E000FFF7DEFC8246FFF7B7FC02460B46DDE93E
:1032F0000A01FFF717FC02460B46CDE90A2300221C
:103300007B4BFFF72DFD002800F0FE800AF1010A3B
:103310005046FFF7A1FC02460B46DDE90801FFF726
:10332000F7FC10B14FF0000A0134002E00F0FD80D0
:10333000681E0EABDFF8CCC118440FE0ACFB0A21CD
:10334000C90801EB8102AAEB42023032BAF1090F3F
:1033500000F8012F40F21C818A461D46202D05F100
:10336000010306F1FF36E9D12025691E0EAB614845
:10337000194410E080FB0462C3EBA20303EB830259
:10338000A4EB420404F1300201351C4601F8012F80
:10339000002B00F0EB80202D4FEAE473EAD1079B6D
:1033A00003F00303012B18D1BBF1000F15D00D9BC7
:1033B000002B00F00A810BF1FF3BBBF1200F0CD971
:1033C0006B1E0EA930220B4405E001355D4503F864
:1033D000012F80F0D180202DF7D1079B0EACCDE9D5
:1033E00002B341464B4638460C9A01950094FFF7CC
:1033F000B7FD8246504617B0BDE8F08F079B9DEDA4
:10340000047BCDE923B341464B4638460C9A8DEDFB
:10341000207B229517B0BDE8F04F00F045B9610759
:1034200023464CBF042303234146219338464B4691
:10343000079A48BF304CCDE922B258BF2F4C0C9AA6
:10344000209417B0BDE8F04FFFF78ABDDDE90423F3
:1034500000200021FFF766FB0123CDE904010D9355
:1034600023460DE723469C0740F0AA80BBF1040FDA
:1034700040F2A6800C9B1D461C1F04EB0B0A2A463B
:103480004B46414620200135B847AA45F7D155465D
:103490001B4C261F14F8010D2A464B464146B847DF
:1034A000B44205F10105F5D1079B0AF1040A98071A
:1034B000A0D50C9CAAEB04039B459BD952464B46D6
:1034C000414620200AF1010AB847AAEB04035B45F4
:1034D000F4D38FE7AFF300800000000065CDCD414D
:1034E0000000000065CDCDC1FFFFEF7F60800010C0
:1034F0000000E03F676666665C7D0010647D00103A
:10350000707D0010CDCCCCCC0022DDE90A01634BEC
:10351000FFF7EAFB00287FF408AFBAF1000F6AD189
:103520000AF1010A002E7FF403AF2046FFF782FB69
:1035300002460B46DDE90401FFF7F4FA02460B46AA
:10354000CDE904230022554BFFF7CEFB00287FF482
:103550000CAFDDE904010022504BFFF701FC00280D
:103560007FF403AF013424F00104FEE6079B03F06F
:103570000303012B00F08280202D3FF42EAF0D9B22
:103580007BB32D220DEB050383F83820013524E7AA
:10359000202B3FF4E9AE0EAA15441E44302204E06D
:1035A000202B05F8012F3FF4DFAE9E4203F101030B
:1035B000F6D12E220DEB060383F83820751CD4E6D5
:1035C000DDF830A063E720256EE6079B13F00C0FB3
:1035D00050D00BF1FF3BAB453FF6F2AE202D3FF450
:1035E000FCAE079B5A0701D52B22CBE71B077FF5C3
:1035F000F4AE2022C6E71AF0010F3FF496AE8FE733
:10360000A60734D1BBF1030F31D90C9B1D46DC1E3C
:1036100004EB0B0A2A464B46414620200135B847A9
:103620005545F7D155461E4CE61E14F8010D2A46A5
:103630004B464146B847A64205F10105F5D1079B27
:103640000AF1030A9D077FF5D5AE0C9CAAEB040393
:103650009B457FF6CFAE52464B46414620200AF1AD
:10366000010AB847AAEB04039B45F4D8C2E6DDF88B
:1036700030A0D7E7AB453FF6A3AEAEE6BBF1000FF7
:103680003FF47AAF0D9B002B9FD00BF1FF3B5D45C4
:10369000FFF496AE202D7FF474AF9EE60000E03F6D
:1036A0006B7D0010000000002DE9F04F9FB02A9EB6
:1036B000DDE92845074693460891099322462B46A3
:1036C000204629460E96DDE92BA6FFF7FBFA0028D7
:1036D00040F0BE80204629464FF0FF32784BFFF77E
:1036E0003FFB002840F0B480204629464FF0FF32CF
:1036F0006FF48013FFF7F8FA002840F0A980204605
:10370000294600220023FFF7EFFA002840F0D58178
:10371000CDE90A45DDE90A239046994606F40062A0
:1037200016F480630F92139340F0A18058EA0903C6
:1037300040F0CA80002A40F0E38106230E9316F081
:103740000202109240F0D4815346042B38BF042368
:103750000C920422043B12920F9320462946002229
:103760000023FFF7C1FA002840F0F3819DED0A7BAA
:103770000F9B5A4603930E9B8DED007B029326F41C
:10378000006304933846099B0899FFF72DFD024614
:1037900016F0200F099B08990CBF6520452002F107
:1037A0000108B8470C9A129B16AC5D1E82EAE273C0
:1037B000A3EBE273D10F002622469946DFF804C13D
:1037C00001E0202E10D0CE46ACFB0930C00800EB43
:1037D0008003A9EB43033033BEF1090F814606F1A4
:1037E000010602F8013BECD80523002006930A23CA
:1037F00005950094099D089C4246CDE90330CDE92A
:1038000001612B4621463846FFF7F8FB109A8046A7
:10381000D2B1A0EB0B06B24516D90BEB06022B4634
:10382000214620200136B847B245F6D80BF1FF33C8
:103830005344CBF10102A3EB08034244924538BF45
:10384000002308F10108984440461FB0BDE8F08FFE
:103850005A463846CDE92845CDE92BA60E9C099B52
:1038600008992A941FB0BDE8F04FFFF7BDBC58EA95
:1038700009032BD1002A3FF462AF00230C930E9B67
:103880000C9A934200F3B9814FF000082046294674
:1038900000220023FFF728FA002840F013819DED55
:1038A0000A7B26F4006646F480668DED287B5A4636
:1038B0003846CDE92A8A099B08992C96D2E700BFA1
:1038C000FFFFEF7FCDCCCCCC06230E93C9F30A507B
:1038D000A0F2FF30FFF7AEF9C1A3D3E90023FFF751
:1038E00035F9C1A3D3E90023FFF708F9C9F3130998
:1038F000CDE90C0149F07F5140460022B24B41F422
:103900004011FFF70FF9A4A3D3E90023FFF71EF935
:1039100002460B46DDE90C01FFF7F0F8FFF7AEF9C0
:103920000C90FFF787F99EA3D3E9002380468946D0
:10393000FFF70CF90022A54BFFF7E0F8FFF79EF91F
:10394000034649464046129397A3D3E90023FFF765
:10395000FDF8804612988946FFF76CF994A3D3E9E5
:103960000023FFF7F3F802460B4640464946FFF7AF
:10397000D9F802460B4680468946FFF7E7F84246EB
:103980004B46CDE9100140464946FFF7B7F8002203
:10399000CDE91401DDE910018D4BFFF7FDF80022A0
:1039A0008C4BFFF7ABF802460B46DDE91001FFF741
:1039B000F3F80022884BFFF7A1F802460B46DDE939
:1039C0001001FFF7E9F842464B4680468946002041
:1039D0004FF08041FFF7A6F802460B4640464946A5
:1039E000FFF78CF802460B46DDE91401FFF7D4F827
:1039F00000227A4BFFF782F8129B002203F2FF3C71
:103A00004FEA0C53FFF7A2F880468946DDE90A0128
:103A100042464B46FFF768F950B10C9B4046013BCC
:103A200049460C9300226B4BFFF7B6F88046894657
:103A30000C9A43466332C62A06F0020210924946A7
:103A40000F9A2CD8002A5ED0042212920B433FF426
:103A500016AFDDE90A0158A3D3E90023FFF76CF99B
:103A600048B1DDE90A0156A3D3E90023FFF73CF989
:103A700000287FF404AF0E9B002B50D0139A002A2D
:103A80007DD0013B0E93129B9A4505D9109B002BCC
:103A900000F0AE800223109300230F9344E022BB7A
:103AA000BAF1050F4FD906F00203002B49D10523C7
:103AB0001293AAF105030F933AE005F100430A942B
:103AC0000B9327E626F4006646F4806638462C966B
:103AD000DDE90A67344607F100455A46CDE92A8AEE
:103AE000CDE92845099B0899BCE605221292ADE76D
:103AF00000230222CDE90F3204220C9312922CE60D
:103B00004FF00508C2E6BAF1040F1FD9109B002B35
:103B100078D104231293AAF104030F9304E0129BBB
:103B20009A4531D80E9B0F930C9B002B3FF415AE9A
:103B3000DDE90A0142464B46FFF72EF8CDE90A01BE
:103B40000BE60223109305231293F1E7042312934B
:103B5000EAE7DDE90A45A0460F9B05F1004903931A
:103B60000E9B5A46029326F4006304933846CDE92F
:103B70000089099B0899FFF737FB024608E6129B6C
:103B80009A4544D80F92CFE7109B8BB30E9B0F93AF
:103B900002231093C8E700BF61436F63A787D23F3A
:103BA00071A379094F930A401655B5BBB16B02401A
:103BB000EF39FAFE422EE63F2D431CEBE2361A3F68
:103BC0000000000080842E410000F83F0000E03F2C
:103BD00000002C4000002440000018400000F03F8E
:103BE000FB799F501344D33FB3C8608B288AC63FEC
:103BF000129BAAEB03030F9396E7A3EB020808F1CD
:103C0000FF3843E604231293022310938CE7109BA2
:103C1000002BEDD002230F92109385E72DE9F04F92
:103C20009BB0249C954D0A94954CB1F1000A18BFA5
:103C3000834625601878934C914608BFA3460993A4
:103C4000002800F093824FF000080AE042464B46FD
:103C5000514608F10108D847099B1878002800F060
:103C6000CE80099B252803F101030993EED11C4660
:103C70000023224612F8010BA0F1200110290AD8D6
:103C8000DFE801F04009093C090909090909093877
:103C9000093409093000A0F130010929099440F2E2
:103CA0008A802A2800F0F08000252E2800F09680D7
:103CB0000026A0F1680112292DD8DFE811F0490192
:103CC0002C0043012C0038012C002C002C002C006F
:103CD0002C002C002C0027002C002C002C002C0089
:103CE0002C002700144643F00103C2E7144643F0BA
:103CF0000203BEE7144643F00403BAE7144643F058
:103D00001003B6E7144643F00803B2E70999487870
:103D100043F480730132672809927ED8242840F248
:103D2000C180A0F12502422A00F2BC80DFE812F037
:103D30005001BA00BA00BA00BA00BA00BA00BA001C
:103D4000BA00BA00BA00BA00BA00BA00BA00BA00A3
:103D5000BA00BA00BA00BA00BA00BA00BA00BA0093
:103D6000BA00BA00BA00BA00BA00BA00BA00BA0083
:103D7000190137011901BA00BA00BA00BA00BA0035
:103D8000BA00BA00BA00BA00BA00BA00BA00BA0063
:103D9000BA00BA00BA00BC01BA00BA00BA00BA0050
:103DA000BA00BA00BA00BA00BA00BC015801BC019E
:103DB000190137011901002500E0013205EB8505E5
:103DC00000EB45051078303DA0F130010929F4D908
:103DD0002E28099202F101027FF46AAF099943F497
:103DE000806348781146A0F13006092E40F2218107
:103DF0002A2800F02F8109920026013259E7444613
:103E0000C14501D809F1FF384B46424651460020D2
:103E1000D84720461BB0BDE8F08FA0F16902D2B2AE
:103E20000F2A3FD8012149F241079140394040F023
:103E3000F3800A2A3DD0072A34D10A9D55F8042B75
:103E4000002A00F0138143F0210012AB1F460B93B0
:103E500003E0202900F014811A4602F00F042346E3
:103E6000092C94BF303337330F2A07F8013B01F197
:103E700001014FEA1213ECD802E100BF1D3C001013
:103E8000B42400205D2F00100A99099851F8045BB2
:103E90004078002DCDE90921BCBF43F002036D42FB
:103EA000013202E742464B46514608F10108D84725
:103EB000D2E60A99002E51F8047B18BF32463878B2
:103EC00008BF4FF0FF32002800F07B83BC18A446E7
:103ED0003A4604E012F8014F002C00F03F8194456F
:103EE000F8D16446E41B5A0540F12281B44228BF50
:103EF000344613F0020300F088820223CDE90A5110
:103F000042461D46464408E04B465146D84717F8FE
:103F1000010F08F1010810B142464645F4D12B4685
:103F20000B990A9D002B40F041810A9194E6099972
:103F300048786C287FF4ECAE0A46887843F44073E6
:103F40000332E8E6099943F4007348780132E2E667
:103F500009994878682800F0038143F08003013212
:103F6000D9E6672800F0D980472800F0DC80452892
:103F700000F0DB80CDE903530A9B0296073323F060
:103F800007031C464246F4E802674B465146584632
:103F9000CDE900670A94FFF787FB80465CE6462878
:103FA00008BF43F02003CDE903530A9B0296073371
:103FB00023F007031C464246F4E802674B4651468D
:103FC0005846CDE900670A94FFF70EF9804643E6AC
:103FD00042464B465146252008F10108D8473BE6AA
:103FE0000A9A990702F1040408F1010640F1C6801B
:103FF00010784B4642465146D847012D88BFA84409
:1040000040F2BD8132464B46514620200136D8470A
:104010004645F7D10A941FE66F2800F0818040F2F0
:104020004882782800F090810A2723F01003BC46CC
:1040300041E0002606EB860600EB4600A0F13006C4
:1040400011F8010FA0F13002092AF3D90A460991AB
:1040500001322EE6DDE9092151F8046B9078023235
:1040600009920A91013226EAE67622E623F0100050
:1040700013F4806240F021003FF4E7AE12AB0B93E3
:104080000B9B0690009308231020059300234246C3
:10409000CDE9023001914B46514658460496FEF751
:1040A000ADFF0A958046D7E5582862D0622840F0D7
:1040B0008F800227BC4613F4806000F0DD8023F07F
:1040C0000D0313F4007240F081810A990F1D13F45F
:1040D000807140F037825C060A9A40F13B81127889
:1040E000002A40F04E8123F01003002800F049819F
:1040F000114612AA0B92CDE90553CDE903C60191F1
:104100000B9B4246009300235146029358464B4670
:10411000FEF774FF0A9780469EE543F4006329E7A3
:104120000827BC46C7E743F4006343F0200321E7B8
:1041300013F0020300F08E8102230A951E460D46FD
:1041400042464B465146D84717F8010F08F101087F
:104150000028F5D1294633460A9DE3E6D41BC2E682
:104160000A46887843F0C0030332D4E5044680460B
:1041700046E6102743F02003BC469CE7012D40F2A1
:10418000F880464608F1FF372F4432464B465146E9
:1041900020200136D847BE42F7D10A9B3246187814
:1041A00051464B46D847A8440A9455E54646A54291
:1041B0007FF6BBAEA844A8EB04080C4632464B463B
:1041C000514620200136D8474645F7D12146ACE676
:1041D00013F4806200F0BB804FF4806223F0110C76
:1041E0001CF400770A9B4AD11CF4807003F104048C
:1041F00040F034811CF0400F40F0A3801CF0800F91
:1042000000F0D381B3F9001081EAE177A7EBE17701
:10421000BFB2CB0F002900F056813A4612A90F46D3
:10422000DFF8D8E30B910A930C9501E020280FD01A
:104230001546AEFB0213DB0803EB8301A2EB410141
:104240003031092D1A4600F1010007F8011BEDD8A5
:104250000A9B0C9DCDE9055CCDE9010304960B9BFF
:10426000424600930A235146039358464B46FEF7B5
:10427000C5FE0A948046EFE423F00C0321E70733E0
:1042800023F00703194608465B6850F8081BDF0F48
:104290000A9051EA030062D1002A40F09F81134640
:1042A000114612AACDE90C7500201546CDE90E681D
:1042B000DFF848E30B9201E020282DD05A1842F194
:1042C0000002AEFB027828F0030707EB9807D21B29
:1042D0001E469B1A61F100070C464FF0CC3101FBE2
:1042E00003F10EFB0711A3FB0E731944052307F01E
:1042F0000108A8FB03389B180A2E03F130034FEA8C
:10430000570774F1000405F8013B00F1010047EA8A
:10431000C1734FEA5101CFD2DDE90C75DDE90E68BA
:104320000B9B424600930A23CDE9055CCDE90107CA
:10433000049603934B4651465846FEF75FFE80466F
:104340008AE419780F4664E71027BC46B3E623F0E9
:10435000100C45E71C064CBF12881268C0E60A46DE
:10436000191E01DB13469CE75242134661EB4101E3
:1043700097E713465146187842464B46D847B04611
:1043800048E613F0200F14BF4120612012ACA6466E
:104390000B940A93A0F10A040C9502E0202912D094
:1043A0002A46B2FBFCF50CFB1520C3B2092803F129
:1043B00030008ABF1B19C3B2DBB262450EF8013B65
:1043C00001F10101EAD20A9B0C9D94E60A9A073298
:1043D00022F00702516852F8084B8E460A9254EABE
:1043E000010276D123F01003002872D0002211467A
:1043F00012AA0B92CDE905530B9B42460093002372
:10440000CDE903C60191029394E7A54298BF013418
:104410007FF674AD4FF48063CDE90A7505EB0802B1
:104420001F460D46141B42464B465146202008F1BC
:104430000108D847A045F6D13B460A9F294638785F
:104440000B9D6C1C00283FF470AD002B3FF475AE43
:10445000002353E5A542DFD801346EE61968CB0F7F
:10446000002900F0A88081EAE172A2EBE17212A9B2
:104470000846DFF888E10B910A930C9501E0202FA4
:104480000FD01546AEFB0213DB0803EB8301A2EB52
:1044900041013031092D1A4607F1010700F8011BCF
:1044A000EDD80A9B0C9DCDE9055CCDE9017304961E
:1044B000D5E6692823F0100C40F08C8013F480625C
:1044C0003FF48EAE88E6002A3FF4A8AE12AA0B9203
:1044D000C0E613F0200F14BF41226122002012A970
:1044E0000A3ACDE90E68CDE90C35CDF844B0064660
:1044F0008846754693460B91CDF840C003E0202EC8
:1045000017D004460D4629463A460023204603F0BC
:104510004FF8D2B2092A02F1300388BF02EB0B0335
:10452000BC42DBB275F1000508F8013B06F101065B
:10453000E5D23146DDE90C35DDE910CBDDF83C8014
:104540000E9E57E70A99096851B923F0100338B154
:1045500012A90B91CDE90553CDE903C60192CFE530
:1045600013F0200F14BF4120612012ACA6460B941B
:104570000A93A0F10A040C9502E0202A12D02946E1
:10458000B1FBFCF50CFB1510C3B2092803F1300098
:104590008ABF1B19C3B2DBB261450EF8013B02F1C1
:1045A0000102EAD20A9B0C9DD4E7196881EAE177FF
:1045B000A7EBE1772DE6002A3FF459AF12AA0B9240
:1045C00071E713F480640DD013F0020412D0044696
:1045D0004646ECE50A276346BC466CE512AB002074
:1045E0000B939DE613F002037FF4E0AD002D7FF402
:1045F00013AF9AE4002D7FF40DAF96E4CDCCCCCC74
:1046000084460CB410B584B006AC54F8043B0A469A
:104610000094614604480394FFF700FB04B0BDE832
:10462000104002B0704700BF552F001070B594467F
:104630001E4605460C4684B04FF0FF32634602A981
:1046400000960348CDE90254FFF7E8FA04B070BDC4
:10465000D931001010B5094B84B01C684CB1034629
:1046600000914FF0FF3203A90548A047012004B094
:1046700010BD00F0F7F9204604B010BDB4240020AE
:10468000D131001000BEFDE708B5FFF7FBFF00BF0A
:1046900038B5064C064DFEF701F9AC4204D254F889
:1046A000043B9847AC42FAD338BD00BF38760010BF
:1046B0004076001003680846114618472DE9F0417E
:1046C0001546427D07468846002A46D0002D1DDD4E
:1046D0000B780A2B23D0012D4FF0000C18D0464642
:1046E000012416F8012F21460A2A04F1010422D0E0
:1046F000A542F6D165450BDC08EB050313F8013C38
:10470000A3F10D03B3FA83F35B093B75BDE8F081B8
:104710003B68A5EB0C0108EB0C009847ECE7037D28
:10472000002BD8D1036802210F489847012DE3D010
:104730004FF0010CD3E716F8013C0D2BD8D08C4577
:1047400008EB0C00A1EB0C0101DA3B689847022151
:1047500005483B689847A446CAE7294640463B6857
:10476000BDE8F041184700BFB08000100B682DE98C
:10477000F041802B0D46064605D05A1C2B442A607A
:104780001E71BDE8F0810F4B1C68A4B10E4F01F102
:10479000040801E0246974B12368002BFAD03B6857
:1047A0000BB1A342F6D1204641462A68FFF786FFA7
:1047B0002469002CF0D1002301222B442A601E71B1
:1047C000BDE8F081A8200020B02000202DE9F047AE
:1047D00082B00D4691461C460646FDF79DFE4FF001
:1047E000FF3C6FF000472E4A821841F100039445C8
:1047F00077EB03013CBF62463B462A4802F0E8FEE5
:104800006B1C804640D00CB3274F284B1C68B4B1BA
:10481000B9F1000F1CD1DFF89C9001E0246974B15C
:104820002368002BFAD0D9F800300BB19C42F5D1A7
:1048300020462A463146B8472469002CF0D1B8F109
:10484000000F26D1284602B0BDE8F087184FDCE7FC
:104850004FF00A0ADFF85C9002E02469002CEED0E9
:104860002368002BF9D0D9F800300BB1A342F4D162
:104870002A4631462046B847012220460DF107015D
:104880008DF807A0B847E8E7304602F051FE05462C
:10489000B9E7044802F090FE284602B0BDE8F08770
:1048A00040420F00C8170020BD460010A82000207D
:1048B000B5460010B0200020084A136823B90AE06A
:1048C00003F110021B6933B18342F9D129B9186988
:1048D00010601961704701B110607047A820002076
:1048E00000F05CBB2DE9F04182B00646FDF714FEF6
:1048F0004FF0FF326FF00043361841F10007B2422B
:1049000073EB07013CBF16461F46DFF86080154D6C
:10491000D8F8004014B912E0246984B12B680BB1B7
:104920009C42F9D1A368002BF6D0012101A8984739
:104930000028F1DD9DF8040002B0BDE8F0810A4BCB
:104940005A6A974209D89B6AB34204D36FF00100B8
:1049500002B0BDE8F0819742F8D101200021FDF7B7
:10496000E5FDD5E7B020002000000B40A820002086
:10497000F0B5174B85B01A68164E5F68164D019258
:10498000346814B911E024697CB12B680BB19C42E6
:10499000F9D1A368002BF6D0012103A8984700287D
:1049A000F1DD9DF80C0005B0F0BD0C4B5A6A974242
:1049B00009D89B6A01998B4203D36FF0010005B0BF
:1049C000F0BD9742F9D101200021FDF7AFFDD7E7F7
:1049D00000800010A8200020B020002000000B4024
:1049E000F0B583B006468DF80700FDF795FD4FF052
:1049F000FF356FF00044174A821841F100039542D9
:104A000074EB03013CBF23462A46134802F0E0FD45
:104A1000124B07461C689CB1114D01E024697CB122
:104A20002368002BFAD02B680BB19C42F6D12046AC
:104A300001220DF10701FFF741FE2469002CEFD19F
:104A400017B9304603B0F0BD034802F0B5FD30465B
:104A500003B0F0BD40420F00C8170020A82000207E
:104A6000B020002038B5044602F062FD012305465F
:104A70001A4620462946FFF7A9FE084B1C682CB1B0
:104A800063682BB198472469002CF9D1284638BDBA
:104A90002469002CF4D1284638BD00BFA82000208E
:104AA0002DE9F041A2B004460D46FDF735FD4FF06B
:104AB000FF376FF00046264ADFF8A480821841F1E4
:104AC0000003974276EB03013CBF3A463346214848
:104AD00002F07EFD00272B462246064601A91E480D
:104AE0000197FFF7A3FD019B0546D8F80040C3B12D
:104AF000002C2BD0194F01E0246974B12368002BDE
:104B0000FAD03B680BB1A342F6D12046019A02A924
:104B1000FFF7D4FD2469002CF0D10023D8F8004021
:104B200001932CB1636843B198472469002CF9D1F3
:104B30002EB9284622B0BDE8F0812469F1E7054886
:104B400002F03AFD284622B0BDE8F0810194EFE77B
:104B500040420F00C81700206D470010B020002011
:104B6000A82000200FB400B583B004A951F8040BAD
:104B70000191FFF795FF03B05DF804EB04B07047B7
:104B8000704700BF0022014B1A7070472925002092
:104B90004B79FF2B0BD1887948B9CB79012B07D101
:104BA000082A05D9034B8A7809201A70704700201B
:104BB000704700BF2925002001207047012901D03E
:104BC0000120704708B5104B91881B78994201D09D
:104BD000002008BD5378012B08D0022BF8D100210A
:104BE00064220846FDF796FD012008BD5188CB05DB
:104BF00048BF480AC1F3402258BF4FF0FF3001F0D0
:104C00007F01FDF705FE00BF292500200048704701
:104C10007C810010012907D15378012B02D19388A0
:104C2000072B03D000207047012070471146A623B0
:104C3000014A01F03DBA00BFD480001003460122B2
:104C400001481A70704700BFB480001008B50B68A7
:104C5000B3F5966F00D008BD00224FF0FF3011462B
:104C6000FDF7D6FD024A034B10601960704700BF84
:104C7000482000204C200020184B70B51A68002AEC
:104C800028D0EFF3108172B6D2E8CF4F0120002C6C
:104C9000FAD1C2E8440F002CF6D1BFF35F8F002297
:104CA0000F4C186859602270C0E88F2F81F310886C
:104CB000002400250B4E3078FCF79EFD20B900241F
:104CC00000252046294670BD3078FCF7A5FD20461A
:104CD000294670BD4FF47A740025EBE7D8240020F4
:104CE0002D2500202C250020014B1878FCF794BDC1
:104CF0002C25002038B5044600200D4601F008FBA5
:104D0000A8B3002001F01AFB88B3FDF705FC4FF0B3
:104D1000FF3E6FF0004C174A821841F100039645A0
:104D20007CEB03013CBF72466346134802F050FC23
:104D3000E8B1002001F0ECFA58B900214FF0FF3043
:104D400000F00EFD6FF002040B4802F035FC204627
:104D500038BD002001F0F2FA0028EED021462A46A4
:104D6000002001F0F5FA04460028EDD1EAE76FF0E3
:104D70000204ECE740420F000C25002008B5FDF7C7
:104D8000CBFB4FF0FF3E6FF0004C0F4A821841F111
:104D9000000396457CEB03013CBF724663460B481B
:104DA00002F016FC70B14FF0FF30002100F0D8FC8B
:104DB000002001F015FB0028F5D1BDE808400348AC
:104DC00002F0FABB08BD00BF40420F000C250020D6
:104DD0002DE9F84380460F46FDF79EFB4FF0FF3567
:104DE0006FF00044334A821841F10003954274EB9E
:104DF00003013CBF2A4623462F4802F0E9FB08B9CD
:104E0000BDE8F883002001F083FA002847D0002F86
:104E100040DD0025DFF8A890284E13E02246002050
:104E200001F024FB002104464FF0FF3000F098FC15
:104E3000002001F0D5FAFDF76FFBC9E90001254418
:104E4000AF4227DD002001F031FB7C1B8442A8BF6C
:104E5000044608EB0501002CE0D121464FF0FF305D
:104E600000F07EFC204601F0BBFA204601F050FA2B
:104E700080B1204601F01AFB0028E1D1FDF74CFB80
:104E8000D9F80030D9F804209B1942F1000283427E
:104E90008A41D5D20848BDE8F84302F08DBB002016
:104EA0000021074BC3E90001BDE8F843024802F0C6
:104EB00083BB00BF40420F000C25002020A107004B
:104EC0005019002030B5002185B02E4802F08CFB2F
:104ED000F0B92D4B1A68CAB1EFF3108172B6D2E85F
:104EE000CF5F0124002DFAD1C2E8454F002DF6D145
:104EF000BFF35F8F254C1D6822785960D3B2012221
:104F00002270C5E88F0F81F31088CBB105B030BD9A
:104F100000214FF0FF3000F023FC002001F00EFADA
:104F20000446184802F048FB002CEFD0184B1B68D1
:104F3000002BEBD0174A106805B0BDE83040184789
:104F4000FDF782F80446FDF7E7FA4FF0FF3C6FF0FB
:104F5000004510F57A7241F10003944575EB0301A9
:104F600038BF2B464FF000014FF0010520460A4C98
:104F700038BF6246CDE901150094FDF769F805B028
:104F800030BD00BF0C250020D82400202D25002096
:104F9000482000204C200020794C00104FF0504356
:104FA00030B585B01C68FDF74FF8FDF763F9A042F6
:104FB00002D0002005B030BD00212A4B08461B78E6
:104FC00001F03CFD28480368002B47D00120FCF786
:104FD000C1FD0346254C2649C0B22370FCF738FCBE
:104FE00020780121FCF7F2FB0E20FCF721FC40BBEE
:104FF000204B0125C3E90000FDF726F80446FDF724
:105000008BFA4FF0FF3E6FF0004C10F57A7241F1D1
:10501000000396457CEB03014FF000012046164C3F
:105020003CBF72466346CDE901150094FDF710F8C8
:105030000028BEDB01211148FFF73EFC012005B02E
:1050400030BD0120FCF77EFB01460A48FCF7DEFD7F
:1050500000220E200A49FCF72BFCEBE7FCF7BAFD17
:10506000B4E700BF908200100C2500202C25002002
:10507000C54E0010D8240020794C00104C1600209A
:10508000E94C0010002001F043B900BF0048704710
:105090001882001000487047C481001038B5184BC2
:1050A00004461A780AB344B940F209424FF44173F6
:1050B000144D6A8013482B8038BD052C1DD8124B27
:1050C000104D53F8241028460023013903E0132B18
:1050D00020F8022F0ED011F8012F0133DBB2002A85
:1050E000F5D15B0043F44073E4E71121184600F06A
:1050F00025F8D8E74FF44A73DCE7002038BD00BF3D
:105100001425002080200020AC81001000B545F25D
:1051100047308BB0FDF770FB01220346092101A83F
:105120009847DDE90332044912BA1BBAC1E90023EA
:105130000BB05DF804FB00BF00250020012901F140
:10514000FF3300F0B3805D490A784FEA121C9F2AB2
:105150008CBF0CF1370C0CF1300C012B80F800C027
:1051600000F0A78002F00F02092A8CBF37323032DC
:10517000022B427000F09D804A784FEA121C9F2A51
:105180008CBF0CF1370C0CF1300C032B80F802C0F3
:1051900000F08F8002F00F02092A8CBF37323032C4
:1051A000042BC27000F085808A784FEA121C9F2A77
:1051B0008CBF0CF1370C0CF1300C052B80F804C0BF
:1051C00077D002F00F02092A8CBF37323032062B1B
:1051D00042716ED0CA784FEA121C9F2A8CBF0CF124
:1051E000370C0CF1300C072B80F806C061D002F0B0
:1051F0000F02092A8CBF37323032082BC27158D0C7
:105200000A794FEA121C9F2A8CBF0CF1370C0CF163
:10521000300C092B80F808C04BD002F00F02092A8D
:105220008CBF373230320A2B427242D04A794FEA71
:10523000121C9F2A8CBF0CF1370C0CF1300C0B2B7D
:1052400080F80AC035D002F00F02092A8CBF37322D
:1052500030320C2BC2722CD08A794FEA121C9F2A52
:105260008CBF0CF1370C0CF1300C0D2B80F80CC0FE
:105270001FD002F00F02092A8CBF373230320E2BBA
:10528000427316D0CA7911099F2A8CBF3731303149
:105290000F2B81730DD002F00F02092A94BF303218
:1052A0003732102BC27318BF103002D000230370A6
:1052B0007047184400230370704700BF002500208A
:1052C00070B500F02DF90C234026194CFF22A3677E
:1052D0000E201849FCF7ECFA32460021164802F07D
:1052E0005DF80125002380211348144A418445704C
:1052F0000683068782604360136042F8043C80F8AE
:10530000213080F83B3043620D4B4FF00056C360B4
:10531000C362803B836202F063F94FF48032094933
:10532000094B25642846E664C4F89010DA6470BD21
:10533000000011509D030020B42000208400105074
:105340000001105010D001000020115001210E204A
:10535000FCF73CBA00220248114600F001B900BF38
:10536000D4200020044B197021B14FF40032034BBC
:10537000C3F89020704700BF262500200020115060
:105380000B785B0602D14B78052B00D070474B8819
:10539000014ADBB21360704700001150CB782DE951
:1053A000F04103F0030EBEF1010FC3F301005BD027
:1053B000002791F802C0344C0CF07F025600898817
:1053C00006EBDC1304EB43134FEADC15D876C1F38C
:1053D0000A0185F0010083F802C019835870DF705C
:1053E000D3008DBB2948043304EB821C03EB000877
:1053F000CCF808801F5082B3254BD2001344CCF860
:105400000430244B3F311A6821F03F01BEF1020FF6
:1054100008BF4900114419601F4B771904EB471767
:105420009942FA602BD82E4404EB4613D97E82F0C1
:10543000A04282F480125B6842EA816242F000423C
:105440001A600120BDE8F081104804EB821C03447F
:10545000CCF8283040F832704AB900220F4904EBEA
:105460004513D9605A60ECE70020BDE8F081D20016
:1054700002F1A04202F58012CCF82420C1E7FDF72A
:1054800007FAFA68CFE700BFB42000208000105070
:1054900004001050BC240020FF0F105000011050D9
:1054A00002F09EB88C4608B5114607481A460CF023
:1054B0007F034FEADC1C0CEB430C00EB4C1000F0BC
:1054C0004FF8012008BD00BFB420002011F07F027A
:1054D00005D100290CBF02200120064B9866C9099E
:1054E000054B01EB420003EB40104FF4006200213A
:1054F00002F06AB800201150B420002011F07F03A0
:1055000000D17047002205485B0003EBD11300EB8C
:1055100043106FF40061C27002F056B8B42000204E
:105520004FF0805209480A4908B50A4B02600A60E8
:105530009968C94311F08051FAD14FF4805206485E
:1055400001F02CFF0922054B5A6708BD00200240DC
:1055500000300240000002400000105000001150D6
:1055600000234FF0010C10B580F81AC08282C3826C
:105570000161044602F024F820B14FF40032074BD9
:10558000C3F89020204602F00FF810B101232377D2
:1055900010BD2046BDE8104001F0FEBF00201150B4
:1055A0002DE9F04100241D4E054623463278DFF8F0
:1055B00078801B4F0DE03B6813EB441324D0DB686D
:1055C0002846984732780134E4B2511CA142234660
:1055D00006DBA242A3EB0203EDD808EB4313EEE790
:1055E000542200210F4801F0D9FE4FF0FF330D483F
:1055F0002022041D4360C4E90133E360FF21BDE8BC
:10560000F041143001F0CABE4FF0E023D3F8F03D72
:10561000DB0700D500BEBDE8F08100BF25250020D6
:10562000901A0020601C00202C820010704700BFE0
:10563000704700BF0020704700207047704700BFD0
:10564000704700BF704700BF704700BF024B5878DB
:10565000003818BF01207047601C0020024B1878EA
:10566000C0F38000704700BF601C00202DE9F047A8
:10567000DFF8E4A09AF80030FF2B56D10E4600293F
:105680003ED0002154220746294801F087FE00221F
:10569000284C294B20461A70FCF79CFA274B2848C7
:1056A0001C60284CFCF7A4FA204601F0ABFD264A0A
:1056B000264B146023B12648FFF7C0FA254B18602B
:1056C0000024234D23462A78DFF89090DFF8848069
:1056D0000EE0D8F8003013EB441311D05B687BB1B7
:1056E00098472A780134E4B2511CA142234611DBC9
:1056F000A242EED89B1A09EB43135B68002BEFD153
:105700004FF0E023D3F8F03DDB0700D500BE0020CA
:10571000BDE8F087314638468AF80070FFF7D0FDC3
:105720000028EDD03846FFF711FE0120BDE8F087D4
:10573000601C0020581C002027250020B41C0020DD
:105740007816002064160020B81C00203D4C001084
:1057500025250020901A0020801600202C820010A1
:105760002DE9F04FDFF8C8928BB099F80030FF2B8D
:1057700000F0F180A84CA94DDFF8B0A2DFF8B4B278
:1057800026687369EFF3108272B6D3E8CF0F012158
:105790000028FAD1C3E8401F0028F6D1BFF35F8F7D
:1057A000B261304607A901F077FB00237269C2E8B5
:1057B0008F3FB36983F31088002800F0CC809DF8F8
:1057C0001D30013B072B00F27D83DFE803F0A7B11A
:1057D000959D8E350A04089B002BD1D009989847D7
:1057E000CEE79DF8201001F07F0605EB460000EBA8
:1057F000D11090F8343023F0010380F8343090F861
:10580000343023F0040380F83430002E00F0A680FA
:10581000037D9AF80020934280F09380804A1268BA
:1058200012EB431300F090809E699DF82120099BA4
:105830009DF81C00B047A3E79BF80030002B00F058
:1058400083809BF80030013BDBB28BF800309BF883
:10585000003003F0FF00002B92D1704F9DF81C80A8
:105860003B7843F001033B7097F8343060F300035A
:1058700087F8343097F8343060F3820387F8343097
:1058800097F8353060F3000387F8353097F83530F6
:1058900060F3820387F8353000F06CFC9DF820300F
:1058A00003F06002602A6CD0402A7CD003F01F0312
:1058B000012B00F0C180022B00F08180002B60D111
:1058C000202A00F0E981002A5BD19DF82130092BC4
:1058D00057D8DFE813F0B001A2015600C10156000D
:1058E00095016B0156006001F4002B78D9077FF514
:1058F00047AFFFF7A9FE43E7EB78DA077FF540AF44
:105900000898FFF795FE3BE72B78D8077FF538AF6F
:105910002878C0F3C000FFF795FE31E79DF81C0022
:10592000FFF73EFE00F01CFC9DF82030AB7027E72F
:105930009DF81C00FFF734FE00F012FCFFF780FE1C
:105940001EE7501C984211DA4FF0E023D3F8F03DE7
:10595000DC0700D500BE0BB0BDE8F08F099B9DF8B9
:1059600021209DF81C0000F019FC09E79B1A2D4A24
:1059700002EB431358E7FFF78DFB0246002840F087
:1059800082814FF0E023D3F8F03DDE0700D500BE62
:105990009DF81C000021FFF799FD80219DF81C0057
:1059A000FFF794FDECE6204800F0E4FB01214046BF
:1059B00008AAFFF72FF900287FF4E2AEE8E79DF888
:1059C000241011F0700FDCD101F07F0607EB4600C8
:1059D000164B00EBD1101B78007D760001969842A3
:1059E0004FEAD116009659D35E1C8642C0F26681FA
:1059F000C01A0C4B03EB4016002A00F0638170695B
:105A000000F0B8FB01214046736908AA98470028B6
:105A10007FF4B6AEBCE700BFB81C0020601C0020BD
:105A2000901A00202C820010154C00102525002013
:105A300080160020272500209DF824300F2BA7D8A2
:105A4000AE4A3B441B791278934232D3511C99429F
:105A50009EDBAB4E9B1A06EB4316706900F08AFB87
:105A600001214046736908AA984700287FF488AE50
:105A70009DF8203013F060068AD19DF821300A3B52
:105A8000012B85D800F076FB9DF821300A2B00F021
:105A9000F281404608A900F0F1FA71E6994B1B68C3
:105AA00003EB4016002A00F00D81002E3FF470AF8A
:105AB000A5E7944A166816EB4316CED168E77B78C3
:105AC0009DF822609E4200F04F817B78002B40F0D1
:105AD000BE817E70002E00F04581701EC0B2FFF7BF
